:020000040000FA
:0400000007EF00F016
:0A0008005F82FAED12F0DDEF12F056
:1008000000E00F804020100804020100804020100A
:1008100008040201804010080402200168685800A2
:10082000686864006868690068686E0068686F00DE
:1008300068687500686878007A58007A64007A6998
:10084000007A6E007A6F007A75007A78002564006D
:0108500000A7
:100852003F50D96EDA6ADFCFF6FF080EF76E080056
:10086200F550250AD8A444EF09F03F50D96EDA6A50
:10087200DF2A000E656F000E646F64C068F065C009
:1008820069F066696769000E466E000E11D06881D4
:100892003F50D96EDA6ADF2A2DD06883F9D768858E
:1008A200F7D76887F5D76889F3D7000E466E010E31
:1008B200456E20D03F50D96EDA6ADFCFF6FF080EC0
:1008C200F76E0800F550416E426A4250000AD8A401
:1008D200ECD74150200AD8B4E4D7030AD8B4E3D7FE
:1008E200080AD8B4DCD7060AD8B4D1D71D0AD8B4BE
:1008F200D4D7DBD745504610D8B4DCD768B168935B
:100902003F50D96EDA6ADFCFF6FF080EF76E0800A5
:10091200F5502A0AD8A418D03F50D96EDA6ADF2AD5
:100922004050D96EDA6A020EDF26DF5CD96EDA6ACF
:10093200DECF64F0DECF65F065AF38D06881646DDC
:10094200651FD8B0652B32D03F50D96EDA6ADF50BE
:10095200086EACEC0DF008C064F009C065F004D07C
:100962003F50D96EDA6ADF2AD00E416EFF0E426E18
:100972003F50D96EDA6ADFCFF6FF080EF76E080035
:10098200F550436E446A415043264250442244503B
:1009920006E10A0E435CD8B002D0010E01D0000E6F
:1009A200476E486A47504810D8A4DAD73F50D96EEC
:1009B200DA6ADFCFF6FF080EF76E0800F5502E0A4E
:1009C200D8A458D0000E0001676F000E666F3F502A
:1009D200D96EDA6ADF2A3F50D96EDA6ADFCFF6FFC4
:1009E200080EF76E0800F5502A0AD8A411D03F501D
:1009F200D96EDA6ADF2A4050D96EDA6A020EDF2631
:100A0200DF5CD96EDA6ADECF66F0DECF67F032D015
:100A12003F50D96EDA6ADF50086EACEC0DF008C0B8
:100A220066F009C067F004D03F50D96EDA6ADF2A57
:100A3200D00E416EFF0E426E3F50D96EDA6ADFCFA2
:100A4200F6FF080EF76E0800F550436E446A4150F7
:100A5200432642504422445006E10A0E435CD8B079
:100A620002D0010E01D0000E496E4A6A49504A1066
:100A7200D8A4DAD73F50D96EDA6ADFCFF6FF080E74
:100A8200F76E0800F550630AD8A419D03F50D96E0A
:100A9200DA6ADF2A4050D96EDA6ADF50DF2ADF2AAB
:100AA200D96EDA6ADF50556E3EC017F055C018F0A5
:100AB20059EC12F017C03EF018C03FF012003F5040
:100AC200D96EDA6ADF50016E200E026E000E046EDD
:100AD200030E036EF3EC10F001500210D8B411D0E3
:100AE2003F50D96EDA6ADF50016E240E026E000E9C
:100AF200046E030E036EF3EC10F001500210D8A442
:100B020032D03F50D96EDA6A030EDF264050D96EDA
:100B1200DA6ADF50DF2ADF2AD96EDA6ADF504C6EDA
:100B2200000E4CBEFF0E4D6E4E6E4F6E506E516EED
:100B3200526E536E3EC01BF04CC01CF04DC01DF0F7
:100B42004EC01EF04FC01FF050C020F051C021F027
:100B520052C022F053C023F058EC09F01BC03EF003
:100B62001CC03FF012003F50D96EDA6ADF50016EAE
:100B7200210E026E000E046E020E036EF3EC10F0F4
:100B820001500210D8B411D03F50D96EDA6ADF504A
:100B9200016E250E026E000E046E020E036EF3EC61
:100BA20010F001500210D8A406D03F50D96EDA6A74
:100BB200020EDF261CD03F50D96EDA6ADFCFF6FF75
:100BC200080EF76E0800F550640AD8B40CD03F50F6
:100BD200D96EDA6ADFCFF6FF080EF76E0800F5501D
:100BE200690AD8A414D03F50D96EDA6ADF2A40507D
:100BF200D96EDA6ADF50DF2ADF2AD96EDA6ADECFEF
:100C02004CF0DDCF4DF0000E4DBEFF0E8DD73F50A4
:100C1200D96EDA6ADF50016E3B0E026E000E046E70
:100C2200020E036EF3EC10F001500210D8B411D092
:100C32003F50D96EDA6ADF50016E3E0E026E000E30
:100C4200046E020E036EF3EC10F001500210D8A4F1
:100C52001CD03F50D96EDA6A020EDF264050D96EA0
:100C6200DA6ADF50DF2ADF2AD96EDA6ADECF41F094
:100C7200DDCF42F041C04CF042C04DF04E6A4F6AA7
:100C8200506A516A526A536A55D73F50D96EDA6A2E
:100C9200DF50016E2C0E026E000E046E030E036E08
:100CA200F3EC10F001500210D8A431D03F50D96EAD
:100CB200DA6A030EDF264050D96EDA6ADF50DF2A85
:100CC200DF2AD96EDA6ADF50416E4150566E576A9A
:100CD200586A596A5A6A5B6A5C6A5D6A3EC017F072
:100CE20056C018F057C019F058C01AF059C01BF07E
:100CF2005AC01CF05BC01DF05CC01EF05DC01FF04E
:100D020050EC0CF017C03EF018C03FF012003F50FC
:100D1200D96EDA6ADF50016E2D0E026E000E046E7D
:100D2200020E036EF3EC10F001500210D8B422D080
:100D32003F50D96EDA6ADFCFF6FF080EF76E080071
:100D4200F5506F0AD8A405D03F50D96EDA6ADF2A6F
:100D520016D03F50D96EDA6ADF50016E440E026E31
:100D6200000E046E020E036EF3EC10F0015002103E
:100D7200D8A416D03F50D96EDA6A020EDF26405050
:100D8200D96EDA6ADF50DF2ADF2AD96EDA6ADECF5D
:100D920041F0DDCF42F041C056F042C057F098D743
:100DA2003F50D96EDA6ADF50016E280E026E000ED5
:100DB200046E030E036EF3EC10F001500210D8A47F
:100DC20018D03F50D96EDA6A030EDF264050D96E32
:100DD200DA6ADF2ADF04D96EDA6ADECF54F05450C1
:100DE200D96EDA6A62C0DFFF000E3F6E000E3E6E01
:100DF20012003F50D96EDA6ADF50016E290E026E80
:100E0200000E046E020E036EF3EC10F0015002109D
:100E1200D8B42AD03F50D96EDA6ADFCFF6FF080E77
:100E2200F76E0800F5506E0AD8A40DD03F50D96E67
:100E3200DA6ADF2A1ED05450D96EDA6A62C0DEFF47
:100E420063C0DDFFD1D73F50D96EDA6ADF50016E41
:100E5200410E026E000E046E020E036EF3EC10F0F1
:100E620001500210D8A40FD03F50D96EDA6A020E98
:100E7200DF264050D96EDA6ADF2ADF04D96EDA6AD9
:100E8200DECF54F0D8D73F50D96EDA6ADFCFF6FF03
:100E9200080EF76E0800F550700AD8A431D03F5002
:100EA200D96EDA6ADF2A4050D96EDA6ADF50DF2A59
:100EB200D96EDA6ADF50416E4150566E576A586AEF
:100EC200596A5A6A5B6A5C6A5D6A3EC017F056C02C
:100ED20018F057C019F058C01AF059C01BF05AC088
:100EE2001CF05BC01DF05CC01EF05DC01FF0780EF0
:100EF200206E72EC0AF017C03EF018C03FF01200EC
:100F02003F50D96EDA6ADFCFF6FF080EF76E08009F
:100F1200F550730AD8A418D03F50D96EDA6ADF2A86
:100F22004050D96EDA6ADF2ADF04D96EDA6ADECF80
:100F32004BF03EC009F04BC00AF0DCEC0EF009C0E9
:100F42003EF00AC03FF012003F50D96EDA6ADF501D
:100F5200016E300E026E000E046E030E036EF3EC91
:100F620010F001500210D8A431D03F50D96EDA6A85
:100F7200030EDF264050D96EDA6ADF50DF2ADF2AFD
:100F8200D96EDA6ADF50416E4150566E576A586A1E
:100F9200596A5A6A5B6A5C6A5D6A3EC01AF056C058
:100FA2001BF057C01CF058C01DF059C01EF05AC0AB
:100FB2001FF05BC020F05CC021F05DC022F07FEC2E
:100FC2000BF01AC03EF01BC03FF012003F50D96E2A
:100FD200DA6ADF50016E310E026E000E046E020EEE
:100FE200036EF3EC10F001500210D8B422D03F503F
:100FF200D96EDA6ADFCFF6FF080EF76E0800F550F9
:10100200750AD8A405D03F50D96EDA6ADF2A16D005
:101012003F50D96EDA6ADF50016E470E026E000E43
:10102200046E020E036EF3EC10F001500210D8A40D
:1010320016D03F50D96EDA6A020EDF264050D96EC2
:10104200DA6ADF50DF2ADF2AD96EDA6ADECF41F0B0
:10105200DDCF42F041C056F042C057F098D73F5022
:10106200D96EDA6ADF50016E340E026E000E046E23
:10107200030E036EF3EC10F001500210D8B411D03D
:101082003F50D96EDA6ADF50016E1C0E026E000EFE
:10109200046E030E036EF3EC10F001500210D8A49C
:1010A20041D03F50D96EDA6ADF50416E020E4126BE
:1010B20041C0F6FF080EF76E0800F5CF55F03F501D
:1010C200D96EDA6A030EDF264050D96EDA6ADF5033
:1010D200DF2ADF2AD96EDA6ADF50416E4150566E3E
:1010E200576A586A596A5A6A5B6A5C6A5D6A3EC0A4
:1010F20017F056C018F057C019F058C01AF059C06E
:101102001BF05AC01CF05BC01DF05CC01EF05DC03D
:101112001FF055C020F072EC0AF017C03EF018C064
:101122003FF012003F50D96EDA6ADF50016E350E81
:10113200026E000E046E020E036EF3EC10F001500C
:101142000210D8B45AD03F50D96EDA6ADF50016E1D
:101152001D0E026E000E046E020E036EF3EC10F012
:1011620001500210D8B449D03F50D96EDA6ADFCFAD
:10117200F6FF080EF76E0800F550780AD8B40CD0C6
:101182003F50D96EDA6ADFCFF6FF080EF76E08001D
:10119200F550580AD8A40FD03F50D96EDA6ADFCF83
:1011A200F6FF080EF76E0800F5CF55F03F50D96EE6
:1011B200DA6ADF2A35D03F50D96EDA6ADF50016E23
:1011C2004A0E026E000E046E020E036EF3EC10F075
:1011D20001500210D8B411D03F50D96EDA6ADF50F4
:1011E200016E380E026E000E046E020E036EF3ECF8
:1011F20010F001500210D8A424D03F50D96EDA6A00
:10120200DF50416E010E412641C0F6FF080EF76E17
:101212000800F5CF55F03F50D96EDA6A020EDF268C
:101222004050D96EDA6ADF50DF2ADF2AD96EDA6AD5
:10123200DECF41F0DDCF42F041C056F042C057F060
:1012420050D73F50D96EDA6ADFCFF6FF080EF76E3D
:101252000800F550250AD8A411D03F50D96EDA6A99
:10126200DF2A000E026E250E016E3EC003F0D1ECA5
:1012720011F0000E3F6E010E3E6E12003F50D96E0D
:10128200DA6ADF2AB1D53F50D96EDA6ADFCFF6FFCC
:10129200080EF76E0800F550016E026A3EC003F0B8
:1012A200D1EC11F03F50D96EDA6ADF2AE2D71CC0C6
:1012B20034F01DC035F01EC036F01FC037F020C01C
:1012C20038F021C039F022C03AF023C03BF03BAEE7
:1012D20002D0010E01D0000E326E336A325033104A
:1012E200D8B410D03B1E3A1E391E381E371E361E89
:1012F200351E346C000E352236223722382239222E
:101302003A223B22000167AF689367BF05D067515D
:1013120008E16605D8B005D0000E2F6E010E2E6EC4
:1013220004D066C02EF067C02FF064C030F065C0F4
:1013320031F032503310D8A402D068A503D0300661
:10134200D8A03106000E3D6E1F0E3C6E000E896F56
:101352007AD03C06D8A03D063C506A0FD96EDA6AB4
:1013620034C001F035C002F036C003F037C004F0DB
:1013720038C005F039C006F03AC007F03BC008F0AB
:101382000A0E096E000E0A6E000E0B6E000E0C6E37
:10139200000E0D6E000E0E6E000E0F6E000E106E21
:1013A2004AEC0EF001C024F002C025F003C026F082
:1013B20004C027F005C028F006C029F007C02AF0B3
:1013C20008C02BF024C013F026C014F02FEC13F049
:1013D2001350300FDF6E2E06D8A02F063006D8A08D
:1013E200310634C001F035C002F036C003F037C018
:1013F20004F038C005F039C006F03AC007F03BC02F
:1014020008F00A0E096E000E0A6E000E0B6E000E38
:101412000C6E000E0D6E000E0E6E000E0F6E000EA4
:10142200106E08EC0DF001C034F002C035F003C0BC
:1014320036F004C037F005C038F006C039F007C0F6
:101442003AF008C03BF03DBE20D03D5003E13C04E1
:10145200D8A01BD034503510361037103810391040
:101462003A103B10D8A475D72FBE05D02F5002E1F9
:101472002E04D8B06ED731BE08D0315003E130040B
:10148200D8A003D0000168B364D732503310D8A477
:1014920003D0000168A515D03C06D8A03D06325005
:1014A2003310D8A404D0000E2D6E2B0E03D0000EE4
:1014B2002D6E2D0E2C6E3C506A0FD96EDA6A2CC03E
:1014C200DFFF1BC00EF03C506A0F0F6E30C010F0F1
:1014D20031C011F090EC11F00EC01BF00FC01CF0E7
:1014E2001200000167AF689367BF05D0675108E13A
:1014F2006605D8B005D0000E2E6E010E2D6E04D0FA
:1015020066C02DF067C02EF064C02FF065C030F0C9
:1015120068A904D0FE0E2F26FF0E302218C031F02B
:1015220019C032F01AC033F01BC034F01CC035F0C1
:101532001DC036F01EC037F01FC038F0000E3A6EE4
:101542001F0E396E000E896F91D03906D8A03A0667
:101552000F0E31143B6E3C6A3CBE08D03C5004E195
:101562000A0E3B5CD8A002D0570E01D0300E3B24AD
:101572003B6E000E3C203C6EBF0E216EFF0E226EB3
:101582002050236E246A21502326225024222450E4
:1015920006E11A0E235CD8B002D0010E01D0000E73
:1015A200296E2A6A29502A10D8B427D09F0E216E9C
:1015B200FF0E226E200E3B10236E000E3C10246E96
:1015C2002150232622502422245006E11A0E235CA5
:1015D200D8B002D0010E01D0000E2B6E2C6A2B5017
:1015E2002C10D8B40AD03BC007F03CC008F011EC74
:1015F20012F007C03BF008C03CF039506A0FD96EB8
:10160200DA6A3BC0DFFF2D06D8A02E062F06D8A02F
:10161200300631C021F032C022F033C023F034C092
:1016220024F035C025F036C026F037C027F038C088
:1016320028F0050E09D0D8902832273226322532DA
:101642002432233222322132E82EF5D721C031F062
:1016520022C032F023C033F024C034F025C035F06C
:1016620026C036F027C037F028C038F03ABE21D065
:101672003A5004E1020E395CD8A01BD0315032102E
:10168200331034103510361037103810D8A45DD707
:101692002EBE05D02E5002E12D04D8B056D730BE52
:1016A20008D0305003E12F04D8A003D0000168B362
:1016B2004CD7000168A912D03906D8A03A06395091
:1016C2006A0FD96EDA6A20C0DFFF3906D8A03A065F
:1016D20039506A0FD96EDA6A300EDF6E17C00EF01B
:1016E20039506A0F0F6E2FC010F030C011F090EC1D
:1016F20011F00EC017F00FC018F01200000167AF12
:10170200689367BF05D0675108E16605D8B005D078
:10171200000E2C6E010E2B6E04D066C02BF067C03B
:101722002CF064C02DF065C02EF01BC02FF01CC041
:1017320030F01DC031F01EC032F01FC033F020C0A7
:1017420034F021C035F022C036F0000E386E1F0E84
:10175200376E000E896F74D03706D8A0380637501E
:101762006A0FD96EDA6A2FC001F030C002F031C0C0
:1017720003F032C004F033C005F034C006F035C0C7
:1017820007F036C008F00A0E096E000E0A6E000E4F
:101792000B6E000E0C6E000E0D6E000E0E6E000E25
:1017A2000F6E000E106E9CEC10F001C023F002C010
:1017B20024F003C025F004C026F005C027F006C0BF
:1017C20028F007C029F008C02AF02350300FDF6E3E
:1017D2002B06D8A02C062D06D8A02E062FC001F06D
:1017E20030C002F031C003F032C004F033C005F063
:1017F20034C006F035C007F036C008F00A0E096E94
:10180200000E0A6E000E0B6E000E0C6E000E0D6EB8
:10181200000E0E6E000E0F6E000E106ED7EC0FF063
:1018220001C02FF002C030F003C031F004C032F02A
:1018320005C033F006C034F007C035F008C036F0FA
:1018420037503810D8B41BD02F503010311032100E
:101852003310341035103610D8A47ED72CBE05D0E4
:101862002C5002E12B04D8B077D72EBE08D02E50D0
:1018720003E12D04D8A003D0000168B36DD71AC0CC
:101882000EF037506A0F0F6E2DC010F02EC011F0FF
:1018920090EC11F00EC01AF00FC01BF01200000104
:1018A20067AF689367BF05D0675108E16605D8B096
:1018B20005D0000E296E010E286E04D066C028F0F5
:1018C20067C029F064C02CF065C02DF018C02EF05E
:1018D20019C02FF01AC030F01BC031F01CC032F01A
:1018E2001DC033F01EC034F01FC035F0000E376E3D
:1018F2001F0E366E000E896F000E2B6E000E2A6EC2
:1019020041D03606D8A03706070E2E142A6E2B6A4F
:1019120036506A0FD96EDA6A2A50300FDF6E280607
:10192200D8A029062C06D8A02D062EC020F02FC044
:1019320021F030C022F031C023F032C024F033C095
:1019420025F034C026F035C027F0040E09D0D89017
:1019520027322632253224322332223221322032D9
:10196200E82EF5D720C02EF021C02FF022C030F093
:1019720023C031F024C032F025C033F026C034F049
:1019820027C035F037BE20D0375003E13604D8A047
:101992001BD02E502F103010311032103310341053
:1019A2003510D8A4AED729BE05D02950AAE1280403
:1019B200D8B0A7D72DBE08D02D5003E12C04D8A053
:1019C20003D0000168B39DD7000168A910D02A5046
:1019D2002B10D8B40CD03606D8A0370636506A0F72
:1019E200D96EDA6A300EDF6E2C06D8A02D0617C02B
:1019F2000EF036506A0F0F6E2CC010F02DC011F091
:101A020090EC11F00EC017F00FC018F01200000E8B
:101A1200126E10AE12D0101E0F1E0E1E0D1E0C1EC8
:101A22000B1E0A1E096C000E0A220B220C220D222A
:101A32000E220F221022010E126E08AE12D0081EC4
:101A4200071E061E051E041E031E021E016C000E4A
:101A52000222032204220522062207220822010E64
:101A6200121A20EE13F0070EDE6AE806FDE20950B4
:101A72000A100B100C100D100E100F101010D8B40D
:101A820046D0010E116E0AD0D89009360A360B36AE
:101A92000C360D360E360F361036112A10AEF4D72C
:101AA200D8901336143615361636173618361936B8
:101AB2001A360950015C0A5002580B5003580C5058
:101AC20004580D5005580E5006580F500758105024
:101AD2000858D8A011D00950015E0A50025A0B5082
:101AE200035A0C50045A0D50055A0E50065A0F5004
:101AF200075A1050085A1380D89010320F320E3203
:101B02000D320C320B320A320932112EC9D7125061
:101B1200D8B410D01A1E191E181E171E161E151E16
:101B2200141E136C000E14221522162217221822DC
:101B320019221A2213C001F014C002F015C003F0DA
:101B420016C004F017C005F018C006F019C007F05F
:101B52001AC008F01200000E166E000E156E000E6E
:101B62000F6E000E0E6E01D0082A010E146E08C010
:101B7200F6FF080EF76E0800F550200AD8B418D008
:101B8200F70E0A6EFF0E0B6E08C0F6FF080EF76E18
:101B92000800F5500C6E0D6A0A500C260B500D22EF
:101BA2000D5004E1050E0C5CD8A002D0000E146E9C
:101BB20014C010F0116A10501110D8B407D0D4D745
:101BC200000E0F6E010E0E6E082A2ED008C0F6FF10
:101BD200080EF76E0800F5500A6E0B6A0B50000AE9
:101BE200D8A422D00A502B0AD8B4EED7060AD8B409
:101BF200E7D71AD015C001F016C002F0000E046E2D
:101C02000A0E036EA8EC13F008C0F6FF080EF76E7A
:101C12000800F550015E000E025A300E0124156EC6
:101C2200000E0220166ED0D7D00E0A6EFF0E0B6E7B
:101C320008C0F6FF080EF76E0800F5500C6E0D6A2C
:101C42000A500C260B500D220D5006E10A0E0C5CB8
:101C5200D8B002D0010E01D0000E126E136A1250DB
:101C62001310D8A4C7D70E500F10D8A40DD015C08A
:101C72000AF016C00BF00A1E0B1E0A4A0B2A0AC0F3
:101C820008F00BC009F0120015C008F016C009F0E8
:101C92001200000E126E08AE12D0081E071E061E9B
:101CA200051E041E031E021E016C000E02220322E8
:101CB20004220522062207220822010E126E10AE0D
:101CC20010D0101E0F1E0E1E0D1E0C1E0B1E0A1E05
:101CD200096C000E0A220B220C220D220E220F2268
:101CE200102209500A100B100C100D100E100F10BC
:101CF2001010D8B43CD0010E116E0AD0D89009361B
:101D02000A360B360C360D360E360F361036112AC1
:101D120010AEF4D70950015C0A5002580B50035818
:101D22000C5004580D5005580E5006580F500758C5
:101D320010500858D8A010D00950015E0A50025A1B
:101D42000B50035A0C50045A0D50055A0E50065AA5
:101D52000F50075A1050085AD89010320F320E32D4
:101D62000D320C320B320A320932112ED3D71250F5
:101D7200D8B410D0081E071E061E051E041E031E20
:101D8200021E016C000E02220322042205220622F8
:101D92000722082201C001F002C002F003C003F0D2
:101DA20004C004F005C005F006C006F007C007F045
:101DB20008C008F0120020EEB3F010EE0CF0060E90
:101DC200DBCFE3FFE806FCE20AC017F01750D8A405
:101DD20002D00C0E176E17C001F0BBEC13F001C05D
:101DE2001AF002C01BF066C018F067C019F019BEE5
:101DF2000ED01A50185C1950800A0B6E1B50800AC4
:101E02000B58D8B004D018C01AF019C01BF01AC071
:101E120018F01BC019F064C015F065C016F000017F
:101E220068A10BD014D0000E026E200E016E09C004
:101E320003F0D1EC11F01A4A1B2A15501A5C1B5000
:101E4200800A0B6E1650800A0B58D8A0ECD7000EF1
:101E5200146E000E136E0FD01750D96EDA6ADF506F
:101E62000B6E0B50016E026A09C003F0D1EC11F047
:101E7200172A134A142A1850135C1450800A0B6E46
:101E82001950800A0B58D8A0E7D7000168B10BD0CF
:101E920014D0000E026E200E016E09C003F0D1ECC8
:101EA20011F01A4A1B2A15501A5C1B50800A0B6E3D
:101EB2001650800A0B58D8A0ECD71AC009F01BC0E4
:101EC2000AF01200036E30D0770E12007C0E120060
:101ED200390E12005E0E1200790E1200710E1200FF
:101EE2003F0E1200060E12005B0E12004F0E120081
:101EF200660E12006D0E12007D0E1200070E120009
:101F02007F0E12006F0E1200030EF66E080EF76EB1
:101F12000800F55012000B0EF66E080EF76E080060
:101F2200F5501200F30E12000350016E026A0250C5
:101F3200000AD8A4F7D70150000AD8B4ECD72E0A69
:101F4200D8B4E2D71E0AD8B4CBD7010AD8B4CAD7BC
:101F5200030AD8B4C9D7010AD8B4C8D7070AD8B473
:101F6200C7D7010AD8B4C6D7030AD8B4C5D7010A5D
:101F7200D8B4C4D70F0AD8B4C3D7010AD8B4C2D7C9
:101F8200580AD8B4A1D7030AD8B4A0D7010AD8B442
:101F92009FD7070AD8B49ED7010AD8B49DD7030A9F
:101FA200D8B49CD7090AD8B4B6D7BCD720EE11F062
:101FB200070EDE6AE806FDE209500A100B100C104B
:101FC2000D100E100F101010D8B446D0010E196E5D
:101FD2000AD0D89009360A360B360C360D360E3634
:101FE2000F361036192A10AEF4D7D89011361236A1
:101FF2001336143615361636173618360950015C64
:102002000A5002580B5003580C5004580D500558F2
:102012000E5006580F50075810500858D8A011D02B
:102022000950015E0A50025A0B50035A0C50045ACE
:102032000D50055A0E50065A0F50075A1050085AA2
:102042001180D89010320F320E320D320C320B3218
:102052000A320932192EC9D711C001F012C002F09A
:1020620013C003F014C004F015C005F016C006F04A
:1020720017C007F018C008F01200800E935DD8A0B8
:1020820007D0000E616F4B0E606F9169926912006A
:1020920091C09EF0935104E1020E925DD8A00AD045
:1020A200FF0E9225A16FFF0E9321A26F000EA06F6B
:1020B200000E07D0000EA26F010EA16F000EA06FDE
:1020C200010E9F6F9E0E8E6F94C08FF095C090F0A0
:1020D2007CEC12F08EC09CF08FC09DF09251931157
:1020E200D8A49DBF23D0FF0E966FFF0E976F92C0AC
:1020F20098F093C099F09651982797519923985147
:102102009C5D99519D59D8A007D0FF0E92259A6FD8
:10211200FF0E93219B6F04D09CC09AF09DC09BF050
:1021220091519A25D96EDA6A000EDF6E9CC091F049
:102132009DC092F0120009500A100B100C100D10E5
:102142000E100F101010D8B43CD0010E116E0AD030
:10215200D89009360A360B360C360D360E360F3647
:102162001036112A10AEF4D70950015C0A500258F9
:102172000B5003580C5004580D5005580E50065879
:102182000F50075810500858D8A010D00950015EBF
:102192000A50025A0B50035A0C50045A0D50055A59
:1021A2000E50065A0F50075A1050085AD890103243
:1021B2000F320E320D320C320B320A320932112E2C
:1021C200D3D701C001F002C002F003C003F004C083
:1021D20004F005C005F006C006F007C007F008C00D
:1021E20008F0120001C006F002C007F00306D8A0F2
:1021F200040603280DE10428D8A40AD0000E026EBA
:10220200000E016E1200062A072A0306D8A0040651
:1022120006C0F6FF080EF76E0800F5500009D8B4A4
:102222001DD007C0F6FF080EF76E0800F550000932
:10223200D8B414D003500410D8B410D006C0F6FF9E
:10224200080EF76E0800F5CF05F007C0F6FF080E7E
:10225200F76E0800F5500518D8B4D5D706C0F6FFBA
:10226200080EF76E0800F5CF05F007C0F6FF080E5E
:10227200F76E0800F550055C016E026AD8A00206EE
:10228200120005C001F0BBEC13F001500A6E200EE3
:102292000B6E0AC006F0050E06260BC007F0062AD2
:1022A20002D0D8900732062EFCD70A500308086ED7
:1022B2000BC009F0082A02D0D8900936082EFCD7A4
:1022C200095007100B6E1BD08A980550D96EDA6A36
:1022D200DF5063EC0FF09EEC12F0052AE00E8A123A
:1022E2008A50F00B08098A6E8A50F00B8A6E140E1F
:1022F200E82EFED70B50FF0A8A160B340B360BC0A2
:1023020006F0E00E0616D8A4DFD76F0E9EEC12F090
:102312000D0EE82EFED700F0E00E8A121200000128
:1023220068A106D00FC009F00EC00AF078EC13F0D5
:1023320011BE05D010C015F011C016F004D0000E69
:10234200166E000E156E000E146E000E136E0AD07D
:10235200000E026E200E016E0EC003F0D1EC11F0E1
:10236200134A142A1550135C1450800A126E165028
:10237200800A1258D8A0ECD7000168B106D00FC06D
:1023820009F00EC00AF078EC13F00FC001F0BBECBC
:1023920013F0155001240E6E165002200F6E12001B
:1023A2000350D8B403D00350D8A404D0015002EC97
:1023B20014F012000350D96EDA6A030ED926DE50E9
:1023C200DE10D8B414D00350D96EDA6A030ED926BF
:1023D2000350E16EE26A010EE126DE50E65CE65051
:1023E200800A086EDE50800A0858D8B012000350E6
:1023F200D96EDA6A010ED926DF50046E0350D96E07
:10240200DA6ADF500424D96EDA6A01C0DFFF0350B2
:10241200D96EDA6A010ED926DE2A000EDD221200FA
:102422009F0E096EFF0E0A6E07C00BF008C00CF07B
:1024320009500B260A500C220C5006E11A0E0B5CB6
:10244200D8B002D0010E01D0000E0D6E0E6A0D50F2
:102452000E10D8B405D05F0E0714076E086A12007A
:1024620007C007F008C008F01200000EAD6F000EA2
:10247200AC6F0001BA51AC1904E1BB51AD19D8B42B
:1024820012D08A0EA36F000EA56F040EA46F4D0E1C
:10249200A66FBAC0A7F0BBC0A8F0CCEC13F0BAC0CC
:1024A200ACF0BBC0ADF08A0E056E42EC11F0E1D784
:1024B200000164516511D8A405D064C019F065C04B
:1024C2001AF006D0FF0E6425196EFF0E65211A6EF2
:1024D20018C06AF0000E6B6F17C00EF06A0E0F6E16
:1024E20019C010F01AC011F090EC11F00EC017F0E4
:1024F2000FC018F012008FC05EF0000E636F000E66
:10250200626F0DD08EC03EF05E0E3F6E90C040F006
:1025120029EC04F03E50000162273F5063235EC065
:10252200F6FF080EF76E0800F5500009D8A4EAD7A6
:1025320062C08EF063C08FF01200016EF00E8A1638
:102542008A84000E036E000E026E013401368A5038
:10255200FC0B046E0150010B0410046E04C08AFFD0
:102562008A82024A032A03BEF0D7035005E1080E0D
:10257200025CD8B01200E9D71200010E076E200EDD
:1025820001180210D8B414D0F70E036EFF0E046EB9
:1025920001C005F002C006F00350052604500622D1
:1025A200065004E1050E055CD8A002D0000E076EAD
:1025B20007C001F0026A1200FA0EF66E270EF76EDD
:1025C200000EF86E00EEB3F010EE0AF00900F5CF3F
:1025D200EEFFE550E150FAE100EE60F02E0EEE6AF9
:1025E200E806FDE15F905F92000EF86E0001DBEFFE
:1025F20013F00600F2BAF2A415D0F2940001BC2B3B
:102602001D0EBC650FD01E0EBC5FBA4BBB2BE80E75
:10261200BA1908E1030EBB19D8A404D0000EBB6F8F
:10262200000EBA6F5F9211009F0E036EFF0E046ED2
:10263200200E0110056E000E0210066E03500526D4
:1026420004500622065006E11A0E055CD8B002D0EC
:10265200010E01D0000E016E026A120014BE05D0F6
:10266200145010E11304D8B00DD013C015F014C0EB
:1026720016F0151E161E154A162A15C013F016C09E
:1026820014F0120013C013F014C014F012009F0EC5
:10269200036EFF0E046E01C005F002C006F0035087
:1026A200052604500622065006E11A0E055CD8B033
:1026B20002D0010E01D0000E016E026A1200BF0E9E
:1026C200036EFF0E046E01C005F002C006F0035057
:1026D200052604500622065006E11A0E055CD8B003
:1026E20002D0010E01D0000E016E026A1200000E2D
:1026F2000D6E000E0C6E09D00BC001F0026A0AC00A
:1027020003F0D1EC11F00C4A0D2A09500C24D96EB9
:10271200DA6ADF500B6E0B50D8B41200EDD7D00E30
:10272200036EFF0E046E01C005F002C006F00350F6
:10273200052604500622065006E10A0E055CD8B0B2
:1027420002D0010E01D0000E016E026A1200015089
:102752000302F3CF05F0F4CF06F001500402F35068
:10276200062602500302F350062605C001F006C0F9
:1027720002F0120001C003F001D0012A0150D96E0B
:10278200DA6ADF50D8A4F9D70350015C016E026AFD
:1027920001BE02061200A70EAB6FA3C091F0A4C047
:1027A20092F0A5C093F0A6C094F0AB0E956F3EECEC
:1027B20010F01200E8EC13F0F3EC13F0000E00013D
:1027C200BB6F7B0EBA6F36EC12F007EF00F0000E13
:1027D200816E070EB46E0F0EC16E000E936E700EF8
:1027E200D36E12008F0ED56E000ED76E000ED66E0F
:1027F200F28AF28ED09E1200286E756C6C2900014E
:0428020000011200BF
:020000040020DA
:08000000FFFFFFFFFFFFFFFF00
:020000040030CA
:0E00000000091F1EFF0181FF0FC00FE00F401F
:00000001FF
