:020000040000FA
:04000000B3EF04F066
:0B0800000080402010080402010000EE
:10080C00036E29D0770E12007A0E1200690E1200B8
:10081C003E0E1200790E1200710E12006F0E1200B5
:10082C00060E12003D0E12001F0E1200560E120084
:10083C005B0E12007B0E1200070E12007F0E1200D0
:10084C005F0E1200010EF66E080EF76E0800F550E2
:10085C001200F50E12000350016E026A0250000ADB
:10086C00D8A4F7D701502E0AD8B4ECD71E0AD8B4A6
:10087C00D5D7010AD8B4D4D7030AD8B4D3D7010A30
:10088C00D8B4D2D7070AD8B4D1D7010AD8B4D0D7A4
:10089C00030AD8B4CFD7010AD8B4CED70F0AD8B42C
:1008AC00CDD7010AD8B4CCD7580AD8B4ABD7030AE1
:1008BC00D8B4AAD7010AD8B4A9D7070AD8B4A8D7EC
:1008CC00010AD8B4A7D7030AD8B4A6D7C2D7046EE6
:1008DC00E00E81168184000E026E000E016ED8901F
:1008EC0004340434046E8A50FC0B036E0450010B68
:1008FC000310036E03C08AFF8182014A022A02BEE2
:10090C00EED7025004E1080E015CD8A0E8D7815064
:10091C00E00B18098A6E1200200E086E05C0D9FF74
:10092C0006C0DAFFDF5006EC04F06DEC04F0054A6B
:10093C00062A8A501F0B08108A6ED8900834083487
:10094C00086E820E076EDE0EE82EFED7072EFCD741
:10095C0081880804D8B41200E1D7F00EF66E090EA7
:10096C00F76E000EF86E00EE17F010EE09F00900AD
:10097C00F5CFEEFFE550E150FAE1000EF86E000104
:10098C00DDEF04F001C003F002C004F002D0014A14
:10099C00022A01C0D9FF02C0DAFFDF50D8A4F7D772
:1009AC000350015C016E04500258026E1200EFEC11
:1009BC0004F08A8A1CC00EF01DC00FF01EC010F08F
:1009CC001FC011F00E0E056E000E066E92EC04F0B8
:1009DC00F9D7000E816E0F0EC16E000E936E400E95
:0D09EC00D36E12006162000000313237004E
:020000040020DA
:08000000FFFFFFFFFFFFFFFF00
:020000040030CA
:0E00000000091F1EFF0181FF0FC00FE00F401F
:00000001FF
